:03000000020040BB
:06000B00D2D5758CE23233
:10004000C2967F019000DB7C0075782E75771E7557
:10005000760C797F11AD758CE2758930D2A9D2AF5B
:10006000D28C7CF07B0430D5FDC2D57838E719D22C
:1000700096F27830EFF2C2962330E7047401797F6C
:10008000FFDCE3DBE17CF07B04B2970578E578B434
:100090003C177578000577E577B43C0D757700055A
:1000A00076E576B4180375760011AD80B9E57875FC
:1000B000F00A8493F57EE5F093F57FE57775F00A15
:1000C0008493F57CE5F093F57DE57675F00A8493ED
:1000D000F57AE5F093F57B7579FF223F065B4F6675
:0B00E0006D7D077F6F777C585E7971A3
:00000001FF
