:03000000020040BB
:100040007F019000CF7C00757F06757E04757D0072
:10005000757C03757B02757A0175790875782E7544
:10006000771E75760C797F7838E719D296F278305A
:10007000EFF2C2962330E724797F0578E578B43C27
:10008000177578000577E577B43C0D757700057630
:10009000E576B4180375760011A17401FF7D048024
:1000A000C6E57875F00A8493F57EE5F093F57FE573
:1000B0007775F00A8493F57CE5F093F57DE5767528
:1000C000F00A8493F57AE5F093F57B7579FF223F8A
:0F00D000065B4F666D7D077F6F777C585E797199
:00000001FF
